{
  "contractName": "Election",
  "abi": [
    {
      "inputs": [],
      "payable": false,
      "stateMutability": "nonpayable",
      "type": "constructor"
    },
    {
      "anonymous": false,
      "inputs": [
        {
          "indexed": false,
          "internalType": "uint256",
          "name": "_id",
          "type": "uint256"
        },
        {
          "indexed": false,
          "internalType": "string",
          "name": "_name",
          "type": "string"
        },
        {
          "indexed": false,
          "internalType": "string",
          "name": "_symbol",
          "type": "string"
        }
      ],
      "name": "CandidateRegistered",
      "type": "event"
    },
    {
      "anonymous": false,
      "inputs": [
        {
          "indexed": false,
          "internalType": "string",
          "name": "_winner",
          "type": "string"
        }
      ],
      "name": "DeclareWinner",
      "type": "event"
    },
    {
      "anonymous": false,
      "inputs": [
        {
          "indexed": false,
          "internalType": "address",
          "name": "",
          "type": "address"
        }
      ],
      "name": "Voted",
      "type": "event"
    },
    {
      "constant": true,
      "inputs": [],
      "name": "admin",
      "outputs": [
        {
          "internalType": "address",
          "name": "",
          "type": "address"
        }
      ],
      "payable": false,
      "stateMutability": "view",
      "type": "function"
    },
    {
      "constant": true,
      "inputs": [
        {
          "internalType": "uint256",
          "name": "",
          "type": "uint256"
        }
      ],
      "name": "candidates",
      "outputs": [
        {
          "internalType": "uint256",
          "name": "id",
          "type": "uint256"
        },
        {
          "internalType": "string",
          "name": "name",
          "type": "string"
        },
        {
          "internalType": "string",
          "name": "symbol",
          "type": "string"
        },
        {
          "internalType": "uint256",
          "name": "totalVotes",
          "type": "uint256"
        }
      ],
      "payable": false,
      "stateMutability": "view",
      "type": "function"
    },
    {
      "constant": true,
      "inputs": [],
      "name": "candidatesCount",
      "outputs": [
        {
          "internalType": "uint256",
          "name": "",
          "type": "uint256"
        }
      ],
      "payable": false,
      "stateMutability": "view",
      "type": "function"
    },
    {
      "constant": true,
      "inputs": [
        {
          "internalType": "address",
          "name": "",
          "type": "address"
        }
      ],
      "name": "voters",
      "outputs": [
        {
          "internalType": "bool",
          "name": "hasRegistered",
          "type": "bool"
        },
        {
          "internalType": "bool",
          "name": "hasVoted",
          "type": "bool"
        }
      ],
      "payable": false,
      "stateMutability": "view",
      "type": "function"
    },
    {
      "constant": true,
      "inputs": [],
      "name": "votersCount",
      "outputs": [
        {
          "internalType": "uint256",
          "name": "",
          "type": "uint256"
        }
      ],
      "payable": false,
      "stateMutability": "view",
      "type": "function"
    },
    {
      "constant": true,
      "inputs": [],
      "name": "winner",
      "outputs": [
        {
          "internalType": "string",
          "name": "",
          "type": "string"
        }
      ],
      "payable": false,
      "stateMutability": "view",
      "type": "function"
    },
    {
      "constant": false,
      "inputs": [
        {
          "internalType": "string",
          "name": "_name",
          "type": "string"
        },
        {
          "internalType": "string",
          "name": "_symbol",
          "type": "string"
        }
      ],
      "name": "registerCandidates",
      "outputs": [],
      "payable": false,
      "stateMutability": "nonpayable",
      "type": "function"
    },
    {
      "constant": false,
      "inputs": [],
      "name": "registerVoters",
      "outputs": [],
      "payable": false,
      "stateMutability": "nonpayable",
      "type": "function"
    },
    {
      "constant": false,
      "inputs": [
        {
          "internalType": "uint256",
          "name": "_id",
          "type": "uint256"
        }
      ],
      "name": "vote",
      "outputs": [],
      "payable": false,
      "stateMutability": "nonpayable",
      "type": "function"
    },
    {
      "constant": false,
      "inputs": [],
      "name": "declareWinner",
      "outputs": [],
      "payable": false,
      "stateMutability": "nonpayable",
      "type": "function"
    }
  ],
  "bytecode": "0x608060405234801561001057600080fd5b5033600560006101000a81548173ffffffffffffffffffffffffffffffffffffffff021916908373ffffffffffffffffffffffffffffffffffffffff16021790555061025842016000806003811061006457fe5b01819055506102d04201600060016003811061007c57fe5b01819055506103484201600060026003811061009457fe5b018190555061103f806100a86000396000f3fe608060405234801561001057600080fd5b506004361061009e5760003560e01c806398c079381161006657806398c0793814610224578063a3ec138d14610242578063c1700e00146102a9578063dfbf53ae146103fb578063f851a4401461047e5761009e565b80630121b93f146100a357806314034bd2146100d15780632d35a8a2146100db5780633477ee2e146100f9578063521278e51461021a575b600080fd5b6100cf600480360360208110156100b957600080fd5b81019080803590602001909291905050506104c8565b005b6100d96106b3565b005b6100e36108c7565b6040518082815260200191505060405180910390f35b6101256004803603602081101561010f57600080fd5b81019080803590602001909291905050506108cd565b604051808581526020018060200180602001848152602001838103835286818151815260200191508051906020019080838360005b8381101561017557808201518184015260208101905061015a565b50505050905090810190601f1680156101a25780820380516001836020036101000a031916815260200191505b50838103825285818151815260200191508051906020019080838360005b838110156101db5780820151818401526020810190506101c0565b50505050905090810190601f1680156102085780820380516001836020036101000a031916815260200191505b50965050505050505060405180910390f35b610222610a2d565b005b61022c610bae565b6040518082815260200191505060405180910390f35b6102846004803603602081101561025857600080fd5b81019080803573ffffffffffffffffffffffffffffffffffffffff169060200190929190505050610bb4565b6040518083151515158152602001821515151581526020019250505060405180910390f35b6103f9600480360360408110156102bf57600080fd5b81019080803590602001906401000000008111156102dc57600080fd5b8201836020820111156102ee57600080fd5b8035906020019184600183028401116401000000008311171561031057600080fd5b91908080601f016020809104026020016040519081016040528093929190818152602001838380828437600081840152601f19601f8201169050808301925050505050505091929192908035906020019064010000000081111561037357600080fd5b82018360208201111561038557600080fd5b803590602001918460018302840111640100000000831117156103a757600080fd5b91908080601f016020809104026020016040519081016040528093929190818152602001838380828437600081840152601f19601f820116905080830192505050505050509192919290505050610bf2565b005b610403610e1a565b6040518080602001828103825283818151815260200191508051906020019080838360005b83811015610443578082015181840152602081019050610428565b50505050905090810190601f1680156104705780820380516001836020036101000a031916815260200191505b509250505060405180910390f35b610486610eb8565b604051808273ffffffffffffffffffffffffffffffffffffffff1673ffffffffffffffffffffffffffffffffffffffff16815260200191505060405180910390f35b600080600381106104d557fe5b015442101580156104f5575060006001600381106104ef57fe5b01544211155b6104fe57600080fd5b600360003373ffffffffffffffffffffffffffffffffffffffff1673ffffffffffffffffffffffffffffffffffffffff16815260200190815260200160002060000160009054906101000a900460ff1661055757600080fd5b600360003373ffffffffffffffffffffffffffffffffffffffff1673ffffffffffffffffffffffffffffffffffffffff16815260200190815260200160002060000160019054906101000a900460ff16156105b157600080fd5b600081101580156105c3575060075481105b6105cc57600080fd5b60046000828152602001908152602001600020600301600081548092919060010191905055506001600360003373ffffffffffffffffffffffffffffffffffffffff1673ffffffffffffffffffffffffffffffffffffffff16815260200190815260200160002060000160016101000a81548160ff0219169083151502179055507f16a9aa39af49f169911e977347975198c503525f7240d6892a626f0227642fce33604051808273ffffffffffffffffffffffffffffffffffffffff1673ffffffffffffffffffffffffffffffffffffffff16815260200191505060405180910390a150565b60006001600381106106c157fe5b015442101580156106e1575060006002600381106106db57fe5b01544211155b6106ea57600080fd5b600560009054906101000a900473ffffffffffffffffffffffffffffffffffffffff1673ffffffffffffffffffffffffffffffffffffffff163373ffffffffffffffffffffffffffffffffffffffff161461074457600080fd5b600060046000808152602001908152602001600020600301549050600080905060008090505b6007548110156107bc5760046000828152602001908152602001600020600301548310156107af57600460008281526020019081526020016000206003015492508091505b808060010191505061076a565b507f6c7546a8dd6df25bc56244a4986663db1fdbea95ba950d5110dd860f774df49c60046000838152602001908152602001600020600101604051808060200182810382528381815460018160011615610100020316600290048152602001915080546001816001161561010002031660029004801561087d5780601f106108525761010080835404028352916020019161087d565b820191906000526020600020905b81548152906001019060200180831161086057829003601f168201915b50509250505060405180910390a160046000828152602001908152602001600020600101600890805460018160011615610100020316600290046108c2929190610ede565b505050565b60075481565b6004602052806000526040600020600091509050806000015490806001018054600181600116156101000203166002900480601f01602080910402602001604051908101604052809291908181526020018280546001816001161561010002031660029004801561097f5780601f106109545761010080835404028352916020019161097f565b820191906000526020600020905b81548152906001019060200180831161096257829003601f168201915b505050505090806002018054600181600116156101000203166002900480601f016020809104026020016040519081016040528092919081815260200182805460018160011615610100020316600290048015610a1d5780601f106109f257610100808354040283529160200191610a1d565b820191906000526020600020905b815481529060010190602001808311610a0057829003601f168201915b5050505050908060030154905084565b60008060038110610a3a57fe5b0154421115610a4857600080fd5b600360003373ffffffffffffffffffffffffffffffffffffffff1673ffffffffffffffffffffffffffffffffffffffff16815260200190815260200160002060000160009054906101000a900460ff1615610aa257600080fd5b604051806040016040528060001515815260200160001515815250600360003373ffffffffffffffffffffffffffffffffffffffff1673ffffffffffffffffffffffffffffffffffffffff16815260200190815260200160002060008201518160000160006101000a81548160ff02191690831515021790555060208201518160000160016101000a81548160ff0219169083151502179055509050506001600360003373ffffffffffffffffffffffffffffffffffffffff1673ffffffffffffffffffffffffffffffffffffffff16815260200190815260200160002060000160006101000a81548160ff021916908315150217905550600660008154809291906001019190505550565b60065481565b60036020528060005260406000206000915090508060000160009054906101000a900460ff16908060000160019054906101000a900460ff16905082565b60008060038110610bff57fe5b0154421115610c0d57600080fd5b600560009054906101000a900473ffffffffffffffffffffffffffffffffffffffff1673ffffffffffffffffffffffffffffffffffffffff163373ffffffffffffffffffffffffffffffffffffffff1614610c6757600080fd5b604051806080016040528060075481526020018381526020018281526020016000815250600460006007548152602001908152602001600020600082015181600001556020820151816001019080519060200190610cc6929190610f65565b506040820151816002019080519060200190610ce3929190610f65565b50606082015181600301559050507f0ec1a365aeeec255796bf50d7a2a8f24d0d5f5c6ada0167b6c647428d91645826007548383604051808481526020018060200180602001838103835285818151815260200191508051906020019080838360005b83811015610d61578082015181840152602081019050610d46565b50505050905090810190601f168015610d8e5780820380516001836020036101000a031916815260200191505b50838103825284818151815260200191508051906020019080838360005b83811015610dc7578082015181840152602081019050610dac565b50505050905090810190601f168015610df45780820380516001836020036101000a031916815260200191505b509550505050505060405180910390a16007600081548092919060010191905055505050565b60088054600181600116156101000203166002900480601f016020809104026020016040519081016040528092919081815260200182805460018160011615610100020316600290048015610eb05780601f10610e8557610100808354040283529160200191610eb0565b820191906000526020600020905b815481529060010190602001808311610e9357829003601f168201915b505050505081565b600560009054906101000a900473ffffffffffffffffffffffffffffffffffffffff1681565b828054600181600116156101000203166002900490600052602060002090601f016020900481019282601f10610f175780548555610f54565b82800160010185558215610f5457600052602060002091601f016020900482015b82811115610f53578254825591600101919060010190610f38565b5b509050610f619190610fe5565b5090565b828054600181600116156101000203166002900490600052602060002090601f016020900481019282601f10610fa657805160ff1916838001178555610fd4565b82800160010185558215610fd4579182015b82811115610fd3578251825591602001919060010190610fb8565b5b509050610fe19190610fe5565b5090565b61100791905b80821115611003576000816000905550600101610feb565b5090565b9056fea265627a7a7231582077ea889be43df0f3887ebb686b0070bef8eae6d6c001b516c47567ffe746f2a164736f6c63430005100032",
  "source": "pragma solidity >=0.4.21 <0.7.0;\n\ncontract Election {\n\n    struct Candidate {\n        uint id;\n        string name;\n        string symbol;\n        uint totalVotes;\n    }\n\n    struct Voter {\n        bool hasRegistered;\n        bool hasVoted;\n    }\n\n    uint[3] timePeriod; \n\n    mapping(address => Voter) public voters;\n    mapping(uint => Candidate) public candidates;\n    \n    address public admin;\n\n    uint public votersCount;\n    uint public candidatesCount;\n    string public winner;\n\n    event CandidateRegistered(uint _id, string _name,string _symbol);\n    event Voted(address);\n    event DeclareWinner(string _winner);\n\n    constructor() public {\n        admin = msg.sender;\n        timePeriod[0] = block.timestamp + 10 minutes;\n        timePeriod[1] = block.timestamp + 12 minutes;\n        timePeriod[2] = block.timestamp + 14 minutes;\n    }\n\n    function registerCandidates(string memory _name,string memory _symbol) public {\n        require(block.timestamp <= timePeriod[0]);\n        require(msg.sender == admin);\n        candidates[candidatesCount] = Candidate(candidatesCount,_name,_symbol,0);\n        emit CandidateRegistered(candidatesCount, _name,_symbol);\n        candidatesCount++;\n    }\n\n    function registerVoters() public {\n        require(block.timestamp <= timePeriod[0]);\n        require(!voters[msg.sender].hasRegistered);\n        voters[msg.sender] = Voter(false, false);\n        voters[msg.sender].hasRegistered = true;\n        votersCount++;\n    }\n\n    function vote(uint _id) public {\n        require(block.timestamp >= timePeriod[0] && block.timestamp <= timePeriod[1]);\n        require(voters[msg.sender].hasRegistered);\n        require(!voters[msg.sender].hasVoted);\n        require(_id >= 0 && _id < candidatesCount);\n        candidates[_id].totalVotes++;\n        voters[msg.sender].hasVoted = true;\n        emit Voted(msg.sender);\n    }\n\n    function declareWinner() public {\n        require(block.timestamp >= timePeriod[1] && block.timestamp <= timePeriod[2]);\n        require(msg.sender == admin);\n        uint max = candidates[0].totalVotes; \n        uint ind = 0;\n        for(uint i=0;i<candidatesCount;i++) {\n            if(max < candidates[i].totalVotes) {\n                max = candidates[i].totalVotes;\n                ind = i;\n            }\n        }\n        emit DeclareWinner(candidates[ind].name);\n        winner = candidates[ind].name;\n    }\n}",
  "sourcePath": "/home/pranil/Projects/Election/contracts/Election.sol",
  "compiler": {
    "name": "solc",
    "version": "0.5.16+commit.9c3226ce.Emscripten.clang"
  },
  "schemaVersion": "3.2.4",
  "updatedAt": "2020-09-29T07:27:29.143Z",
  "networkType": "ethereum",
  "devdoc": {
    "methods": {}
  },
  "userdoc": {
    "methods": {}
  }
}